{"abi":[{"type":"constructor","inputs":[{"name":"_token0","type":"address","internalType":"address"},{"name":"_token1","type":"address","internalType":"address"},{"name":"_fee","type":"uint24","internalType":"uint24"},{"name":"_tickSpacing","type":"int24","internalType":"int24"}],"stateMutability":"nonpayable"},{"type":"function","name":"fee","inputs":[],"outputs":[{"name":"","type":"uint24","internalType":"uint24"}],"stateMutability":"view"},{"type":"function","name":"maxLiquidityPerTick","inputs":[],"outputs":[{"name":"","type":"uint128","internalType":"uint128"}],"stateMutability":"view"},{"type":"function","name":"tickSpacing","inputs":[],"outputs":[{"name":"","type":"int24","internalType":"int24"}],"stateMutability":"view"},{"type":"function","name":"token0","inputs":[],"outputs":[{"name":"","type":"address","internalType":"address"}],"stateMutability":"view"},{"type":"function","name":"token1","inputs":[],"outputs":[{"name":"","type":"address","internalType":"address"}],"stateMutability":"view"}],"bytecode":{"object":"0x6101206040523480156200001257600080fd5b50604051620008d0380380620008d08339818101604052810190620000389190620002d3565b8373ffffffffffffffffffffffffffffffffffffffff1660808173ffffffffffffffffffffffffffffffffffffffff16815250508273ffffffffffffffffffffffffffffffffffffffff1660a08173ffffffffffffffffffffffffffffffffffffffff16815250508162ffffff1660c08162ffffff16815250508060020b60e08160020b81525050620000d1816200010760201b60201c565b6fffffffffffffffffffffffffffffffff16610100816fffffffffffffffffffffffffffffffff1681525050505050506200059e565b60008082837ffffffffffffffffffffffffffffffffffffffffffffffffffffffffffff27618620001399190620003a3565b62000145919062000417565b9050600083847ffffffffffffffffffffffffffffffffffffffffffffffffffffffffffff2761862000177906200045d565b620001839190620003a3565b6200018f919062000417565b905060006001858484620001a49190620004aa565b620001b09190620003a3565b620001bc91906200050c565b90508062ffffff166fffffffffffffffffffffffffffffffff620001e1919062000566565b9350505050919050565b600080fd5b600073ffffffffffffffffffffffffffffffffffffffff82169050919050565b60006200021d82620001f0565b9050919050565b6200022f8162000210565b81146200023b57600080fd5b50565b6000815190506200024f8162000224565b92915050565b600062ffffff82169050919050565b6200026f8162000255565b81146200027b57600080fd5b50565b6000815190506200028f8162000264565b92915050565b60008160020b9050919050565b620002ad8162000295565b8114620002b957600080fd5b50565b600081519050620002cd81620002a2565b92915050565b60008060008060808587031215620002f057620002ef620001eb565b5b600062000300878288016200023e565b945050602062000313878288016200023e565b935050604062000326878288016200027e565b92505060606200033987828801620002bc565b91505092959194509250565b7f4e487b7100000000000000000000000000000000000000000000000000000000600052601260045260246000fd5b7f4e487b7100000000000000000000000000000000000000000000000000000000600052601160045260246000fd5b6000620003b08262000295565b9150620003bd8362000295565b925082620003d057620003cf62000345565b5b600160000383147fffffffffffffffffffffffffffffffffffffffffffffffffffffffffff800000831416156200040c576200040b62000374565b5b828205905092915050565b6000620004248262000295565b9150620004318362000295565b9250828202620004418162000295565b915080821462000456576200045562000374565b5b5092915050565b60006200046a8262000295565b91507fffffffffffffffffffffffffffffffffffffffffffffffffffffffffff80000082036200049f576200049e62000374565b5b816000039050919050565b6000620004b78262000295565b9150620004c48362000295565b92508282039050627fffff81137fffffffffffffffffffffffffffffffffffffffffffffffffffffffffff8000008212171562000506576200050562000374565b5b92915050565b6000620005198262000255565b9150620005268362000255565b9250828201905062ffffff81111562000544576200054362000374565b5b92915050565b60006fffffffffffffffffffffffffffffffff82169050919050565b600062000573826200054a565b915062000580836200054a565b92508262000593576200059262000345565b5b828204905092915050565b60805160a05160c05160e051610100516102ee620005e260003960006101180152600061013c01526000610184015260006101600152600060f401526102ee6000f3fe608060405234801561001057600080fd5b50600436106100575760003560e01c80630dfe16811461005c57806370cf754a1461007a578063d0c93a7c14610098578063d21220a7146100b6578063ddca3f43146100d4575b600080fd5b6100646100f2565b60405161007191906101e7565b60405180910390f35b610082610116565b60405161008f919061022d565b60405180910390f35b6100a061013a565b6040516100ad9190610264565b60405180910390f35b6100be61015e565b6040516100cb91906101e7565b60405180910390f35b6100dc610182565b6040516100e9919061029d565b60405180910390f35b7f000000000000000000000000000000000000000000000000000000000000000081565b7f000000000000000000000000000000000000000000000000000000000000000081565b7f000000000000000000000000000000000000000000000000000000000000000081565b7f000000000000000000000000000000000000000000000000000000000000000081565b7f000000000000000000000000000000000000000000000000000000000000000081565b600073ffffffffffffffffffffffffffffffffffffffff82169050919050565b60006101d1826101a6565b9050919050565b6101e1816101c6565b82525050565b60006020820190506101fc60008301846101d8565b92915050565b60006fffffffffffffffffffffffffffffffff82169050919050565b61022781610202565b82525050565b6000602082019050610242600083018461021e565b92915050565b60008160020b9050919050565b61025e81610248565b82525050565b60006020820190506102796000830184610255565b92915050565b600062ffffff82169050919050565b6102978161027f565b82525050565b60006020820190506102b2600083018461028e565b9291505056fea264697066735822122085742453d63e5609c8640297571b704f1946765ff2ba12efe7db527afd1c1ab264736f6c63430008130033","linkReferences":{}},"methodIdentifiers":{"fee()":"ddca3f43","maxLiquidityPerTick()":"70cf754a","tickSpacing()":"d0c93a7c","token0()":"0dfe1681","token1()":"d21220a7"},"id":21}