{"abi":[{"type":"constructor","inputs":[{"name":"_token0","type":"address","internalType":"address"},{"name":"_token1","type":"address","internalType":"address"},{"name":"_fee","type":"uint24","internalType":"uint24"},{"name":"_tickSpacing","type":"int24","internalType":"int24"}],"stateMutability":"nonpayable"},{"type":"function","name":"fee","inputs":[],"outputs":[{"name":"","type":"uint24","internalType":"uint24"}],"stateMutability":"view"},{"type":"function","name":"maxLiquidityPerTick","inputs":[],"outputs":[{"name":"","type":"uint128","internalType":"uint128"}],"stateMutability":"view"},{"type":"function","name":"tickSpacing","inputs":[],"outputs":[{"name":"","type":"int24","internalType":"int24"}],"stateMutability":"view"},{"type":"function","name":"token0","inputs":[],"outputs":[{"name":"","type":"address","internalType":"address"}],"stateMutability":"view"},{"type":"function","name":"token1","inputs":[],"outputs":[{"name":"","type":"address","internalType":"address"}],"stateMutability":"view"}],"bytecode":{"object":"0x61012060405234801561001157600080fd5b50604051610575380380610575833981810160405281019061003391906101dd565b8373ffffffffffffffffffffffffffffffffffffffff1660808173ffffffffffffffffffffffffffffffffffffffff16815250508273ffffffffffffffffffffffffffffffffffffffff1660a08173ffffffffffffffffffffffffffffffffffffffff16815250508162ffffff1660c08162ffffff16815250508060020b60e08160020b815250506100ca816100ff60201b60201c565b6fffffffffffffffffffffffffffffffff16610100816fffffffffffffffffffffffffffffffff168152505050505050610244565b6000919050565b600080fd5b600073ffffffffffffffffffffffffffffffffffffffff82169050919050565b60006101368261010b565b9050919050565b6101468161012b565b811461015157600080fd5b50565b6000815190506101638161013d565b92915050565b600062ffffff82169050919050565b61018181610169565b811461018c57600080fd5b50565b60008151905061019e81610178565b92915050565b60008160020b9050919050565b6101ba816101a4565b81146101c557600080fd5b50565b6000815190506101d7816101b1565b92915050565b600080600080608085870312156101f7576101f6610106565b5b600061020587828801610154565b945050602061021687828801610154565b93505060406102278782880161018f565b9250506060610238878288016101c8565b91505092959194509250565b60805160a05160c05160e051610100516102ee61028760003960006101180152600061013c01526000610184015260006101600152600060f401526102ee6000f3fe608060405234801561001057600080fd5b50600436106100575760003560e01c80630dfe16811461005c57806370cf754a1461007a578063d0c93a7c14610098578063d21220a7146100b6578063ddca3f43146100d4575b600080fd5b6100646100f2565b60405161007191906101e7565b60405180910390f35b610082610116565b60405161008f919061022d565b60405180910390f35b6100a061013a565b6040516100ad9190610264565b60405180910390f35b6100be61015e565b6040516100cb91906101e7565b60405180910390f35b6100dc610182565b6040516100e9919061029d565b60405180910390f35b7f000000000000000000000000000000000000000000000000000000000000000081565b7f000000000000000000000000000000000000000000000000000000000000000081565b7f000000000000000000000000000000000000000000000000000000000000000081565b7f000000000000000000000000000000000000000000000000000000000000000081565b7f000000000000000000000000000000000000000000000000000000000000000081565b600073ffffffffffffffffffffffffffffffffffffffff82169050919050565b60006101d1826101a6565b9050919050565b6101e1816101c6565b82525050565b60006020820190506101fc60008301846101d8565b92915050565b60006fffffffffffffffffffffffffffffffff82169050919050565b61022781610202565b82525050565b6000602082019050610242600083018461021e565b92915050565b60008160020b9050919050565b61025e81610248565b82525050565b60006020820190506102796000830184610255565b92915050565b600062ffffff82169050919050565b6102978161027f565b82525050565b60006020820190506102b2600083018461028e565b9291505056fea264697066735822122047bdfed775b5799f60f367d70c9e0ae98dc45ff990fb29d3910314252e48950864736f6c63430008130033","linkReferences":{}},"methodIdentifiers":{"fee()":"ddca3f43","maxLiquidityPerTick()":"70cf754a","tickSpacing()":"d0c93a7c","token0()":"0dfe1681","token1()":"d21220a7"},"id":21}